:100000000C943A000C94010A0C942A0A0C94530A9A
:100010000C94B00C0C94870C0C94390C0C94E70BDA
:100020000C94100C0C94BE0B0C94E10A0C94B80ABE
:100030000C9457000C941A0D0C94430D0C94F10C75
:100040000C9452080C9457000C9457000C945700D1
:100050000C94D809140B170B230B260B2C0B2F0B0E
:10006000380B3B0B410B440B4A0B4D0B560B6B0BE8
:100070005C0B5F0B11241FBECFE5D8E0DEBFCDBF08
:1000800012E0A0E6B0E0E4E0FEE102C005900D92CF
:10009000A836B107D9F723E0A8E6B2E001C01D9267
:1000A000A830B207E1F70E9407080C94000F0C94E7
:1000B0000000DC0190E0292F30E0FD01E20FF31F8A
:1000C0004081442341F0FB01E20FF31F808148137C
:1000D00004C09F5FF0CF81E0089580E0089540E183
:1000E00061E082E00E94000461E082E00E94EF0390
:1000F00087E992E00C946D0380E00E943F089093A2
:100100006A028093690240E161E082E00E9400049B
:100110006091690270916A0280E090E00E94800321
:100120008091690290916A020C94770E0F931F934D
:10013000CF9362E083E00E947C0A62E081E00E944B
:100140000A0B67E080E00E94620C0E94830401E6D3
:1001500010E0C0E0F801619171918F0187E992E0B0
:100160000E9459008130F9F0CF5FCF3099F78FEFBF
:1001700080936802609168026F3F39F480E890E0F4
:10018000CF911F910F910C94430E60936E0280915A
:100190006D020E94250580916E0280936D02CF91C1
:1001A0001F910F910895C0936802E4CF62E08FE041
:1001B0000E940A0B0E94FD0587E992E00E94190443
:1001C000862F0C94040662E970E087E992E00E94B1
:1001D0005900882311F061E009C065E970E087E902
:1001E00092E00E945900882321F060E085E10C94A0
:1001F000590989E990E00C94430E62E970E087E9BF
:1002000092E00E945900882311F061E009C065E97D
:1002100070E087E992E00E945900882321F060E0B5
:1002200083E10C94590989E990E00C94430E62E94A
:1002300070E087E992E00E945900882311F061E0A4
:1002400009C065E970E087E992E00E9459008823BF
:1002500021F060E084E10C94590989E990E00C9464
:10026000430E62E970E087E992E00E94590088231A
:1002700011F061E009C065E970E087E992E00E9451
:100280005900882321F060E082E10C94590989E942
:1002900090E00C94430E62E970E087E992E00E94DE
:1002A0005900882311F061E009C065E970E087E931
:1002B00092E00E945900882321F060E081E10C94D3
:1002C00059098DEA90E00C94430E62E970E087E9E9
:1002D00092E00E945900882311F061E009C065E9AD
:1002E00070E087E992E00E945900882321F060E0E5
:1002F00080E10C94590989E990E00C94430E61EC7B
:1003000070E087E992E00E945900882319F080E0AC
:100310000C94590460EC70E087E992E00E94590067
:10032000882319F080E00C94670464EC70E087E99E
:1003300092E00E945900882319F080E00C94750423
:1003400089E990E00C94430E0E94A30762E080E0EC
:100350000E940A0B87E00E94B4076BE672E087E018
:100360000E94C907813099F440E161E082E00E9477
:10037000000460916B0270916C0280E090E00E943A
:10038000800380916B0290916C020C94770E89EC43
:1003900090E00C94560E80916000853079F487E9E6
:1003A00092E00E94190477FD03C0CB010C94CB06A8
:1003B00088279927861B970B0C941C07863059F4C5
:1003C00087E992E00E941904862F67FF0C94F006DB
:1003D00081950C94410708958FE692E00E94680E83
:1003E00010926D0208950F931F93CF93C091030352
:1003F000C13009F064C0109203030E94FD0384ED34
:1004000090E00E94430E30E0E0E08FEF8C0F90E030
:10041000DC01A159BD4F2C912223B9F0203239F0D3
:1004200031110AC0DC01AA55BD4F2C930CC0DC0170
:10043000AA55BD4F1C9206C0AE2FB0E0A956BD4FC5
:100440002C93EF5F31E0CF5FE0CFF0E0E956FD4F56
:10045000108261E081E00E94EF038FE692E00E944B
:100460006D0381EE90E00E946D0307E611E0C0E0AD
:10047000F8016081718186EA92E00E945900813022
:1004800031F0CF5F0C5F1F4FCE3091F7CFEFC093AD
:100490006000CF3F19F48AEE90E00CC084E0C802FF
:1004A000F0011124E959FE4F0280F381E02D0995F6
:1004B0008EEF90E0CF911F910F910C94430ECF914E
:1004C0001F910F910895AF92BF92DF92EF92FF922A
:1004D0000F931F93CF93DF93982F9F70D92EC82F20
:1004E000C295CF7060E081E00E94590988E3E82E50
:1004F00082E0F82E570103E010E0D0E0BE01002EAC
:1005000002C0759567950A94E2F76170F5018291D2
:100510005F010E9459090150110980F761E082E0F2
:100520000E9459098FEC97E00197F1F700C0000095
:1005300060E082E00E945909EFECF7E03197F1F7B3
:1005400000C00000C3E0D0E00D2D10E0B8010C2E7B
:1005500002C0759567950A94E2F76170F701829180
:100560007F010E945909219788F761E082E00E948B
:1005700059098FEC97E00197F1F700C0000060E0A7
:1005800082E00E945909EFECF7E03197F1F700C0E3
:100590000000DF91CF911F910F91FF90EF90DF90BE
:1005A000BF90AF900895AF92BF92DF92EF92FF920B
:1005B0000F931F93CF93DF93982F9F70D92EC82F3F
:1005C000C295CF7061E081E00E94590988E3E82E6E
:1005D00082E0F82E570103E010E0D0E0BE01002ECB
:1005E00002C0759567950A94E2F76170F5018291F2
:1005F0005F010E9459090150110980F761E082E012
:100600000E9459098FEC97E00197F1F700C00000B4
:1006100060E082E00E945909EFECF7E03197F1F7D2
:1006200000C00000C3E0D0E00D2D10E0B8010C2E9A
:1006300002C0759567950A94E2F76170F70182919F
:100640007F010E945909219788F761E082E00E94AA
:1006500059098FEC97E00197F1F700C0000060E0C6
:1006600082E00E945909EFECF7E03197F1F700C002
:100670000000DF91CF911F910F91FF90EF90DF90DD
:10068000BF90AF9008952FE788E391E0215080401C
:100690009040E1F700C0000082E00E94630288E21F
:1006A0000E9463028FEC97E00197F1F700C0000011
:1006B0008CE00E9463028FEC97E00197F1F700C095
:1006C000000081E00E9463028FE097E20197F1F75A
:1006D00000C0000086E00C9463020F931F93CF9339
:1006E0008C01C0E0F801EC0FF11D8081882321F01E
:1006F0000E94D302CF5FF6CFCF911F910F91089543
:100700004F925F926F927F92AF92BF92CF92DF92A1
:10071000EF92FF921F93CF93DF93CDB7DEB764972D
:100720000FB6F894DEBF0FBECDBF6B017C01611523
:1007300071058105910529F480E30E94D30210E040
:100740002AC097FF0BC08DE20E94D302F094E09480
:10075000D094C094C11CD11CE11CF11C10E09AE0A3
:10076000492E512C612C712CAA24A394B12CAC0ECF
:10077000BD1EA10EB11CC701B601A30192010E94CA
:10078000C10EF501608369017A011F5FC114D104B4
:10079000E104F10449F7115017FD0DC0E1E0F0E06C
:1007A000EC0FFD1FE10FF11D17FDFA958081805DB3
:1007B0000E94D302F0CF64960FB6F894DEBF0FBE4E
:1007C000CDBFDF91CF911F91FF90EF90DF90CF9041
:1007D000BF90AF907F906F905F904F900895813061
:1007E00021F48FEF860F806805C0823029F48FEFE7
:1007F000860F806C0C946302089581E00C94630270
:100800000F931F93CF93DF93D82F162F042F0E949F
:10081000EF03C0E0C01729F080E20E94D302CF5F4F
:10082000F9CF612F8D2FDF91CF911F910F910C94F4
:10083000EF03CF92DF92EF92FF921F93CF93DF935C
:10084000EC011881F1E01D3209F0F0E060E070E0A9
:10085000CB01DE01AF0FB11DEC91EE23C9F020ED0D
:100860002E0F2A3098F4AAE0B0E09B01AC010E9460
:10087000F50E4E2F50E09A01205331096901330FD4
:10088000EE08FF086C0D7D1D8E1D9F1DFF5FE1CFE3
:100890001D3239F490958095709561957F4F8F4FFB
:1008A0009F4FDF91CF911F91FF90EF90DF90CF90FE
:1008B0000895E82FF0E0EE0FFF1FE85CFD4F61E0C8
:1008C00080810E94590960E089E00C945909E82F61
:1008D000F0E0EE0FFF1FE85CFD4F60E080810E94BA
:1008E000590961E089E00C945909E82FF0E0EE0F16
:1008F000FF1FE85CFD4F60E080810E94590960E0C5
:1009000089E00C94590983E00E949D0A83E00E94CB
:10091000720B83E00C948D0B8F3020F590E0FC017E
:10092000EE0FFF1F8E0F9F1FFC01E65CFD4F8081C5
:1009300080958CBF21818FEF90E0AC01421B510963
:100940005BBD4ABD2281821B910999BD88BD808112
:100950009181A2818093C5029093C602A093C702A1
:1009600080E0089581E00895FC01892B81F0808169
:1009700080958CBF81812FEF30E0A901481B510980
:100980005BBD4ABD8281281B310939BD28BD089550
:10099000CF93C091B502C930B1F48091C202909159
:1009A000C302A091C4028093C5029093C602A09393
:1009B000C7028091B6020E948C0489B78F7B89BFE1
:1009C0001092B50240C08091BC02811106C0909186
:1009D000B9028091BF02890F07C0813039F480913C
:1009E000B9029091BF02891B8093B9028091BD0228
:1009F000811106C09091BA028091C002890F07C090
:100A0000813039F48091BA029091C002891B8093A1
:100A1000BA028091BE02811106C09091BB02809102
:100A2000C102890F07C0813039F48091BB029091D7
:100A3000C102891B8093BB0289EB92E00E94B4043F
:100A4000CF5FC093B502CF9108956F927F928F923E
:100A5000CF92DF92EF92FF920F931F93CF93DF938A
:100A6000D82FC62F0E948C04DF3008F0B9C0CF30D9
:100A700008F0B6C08091B7029091B8026AE070E0C9
:100A80000E948B0E6B01E12CF12CC093B6022D2F2E
:100A900030E0F901EE0FFF1FCF01820F931F865C3C
:100AA0009D4FDC016D907D908C906092C50270929C
:100AB000C6028092C7026092B9027092BA02809216
:100AC000BB024C2F50E0DA01AA0FBB1FED01C40F8F
:100AD000D51F8E01065C1D4FE801688079808A80F1
:100AE0006092C2027092C3028092C40268EE73E008
:100AF0007093B8026093B70269B7606469BFEC0194
:100B00009881E8018881891748F4981B892F6AE049
:100B10000E947F0E8093BF0281E00CC0981748F4BA
:100B2000891B6AE00E947F0E8093BF021092BC0274
:100B300003C082E08093BC02EF01C20FD31FC65CEA
:100B4000DD4F9981ED01C40FD51FC65CDD4F898152
:100B5000891748F4981B892F6AE00E947F0E8093C2
:100B6000C00281E00CC0981748F4891B6AE00E941B
:100B70007F0E8093C0021092BD0203C082E080937A
:100B8000BD022E0F3F1FF901E65CFD4F92814A0F17
:100B90005B1FDA01A65CBD4F12968C91891748F451
:100BA000981B892F6AE00E947F0E8093C10281E02A
:100BB0000DC0981750F49181891B6AE00E947F0E46
:100BC0008093C1021092BE0203C082E08093BE02F5
:100BD00048EC54E0C701B6010E94AD0D80E001C0B1
:100BE00081E0DF91CF911F910F91FF90EF90DF9007
:100BF000CF908F907F906F9008958FE19EE49BBD82
:100C00008ABD82E00C948D0B853B08F084EB282F85
:100C100030E0A4E6B0E00E94E60E29E030E040E0DB
:100C200050E00E949F0E2D503E4F39BD28BD0895C3
:100C3000089561E08CE00E94590960E08DE00E9417
:100C4000590960E08EE00E94590960E08FE00E943F
:100C500059098FE097E20197F1F700C0000060E0CA
:100C60008CE00E94590961E08DE00E94590960E022
:100C70008EE00E94590960E08FE00E9459098FE0E0
:100C800097E20197F1F700C0000060E08CE00E945D
:100C9000590960E08DE00E94590961E08EE00E94F0
:100CA000590960E08FE00E9459098FE097E20197AF
:100CB000F1F700C0000060E08CE00E94590960E09C
:100CC0008DE00E94590960E08EE00E94590961E0C0
:100CD0008FE00E9459098FE097E20197F1F700C079
:100CE0000000089561E08CE00E94590960E08FE007
:100CF0000E94590960E08EE00E94590960E08DE091
:100D00000E9459098FE097E20197F1F700C00000B7
:100D100060E08CE00E94590961E08FE00E9459096F
:100D200060E08EE00E94590960E08DE00E94590960
:100D30008FE097E20197F1F700C0000060E08CE0DF
:100D40000E94590960E08FE00E94590961E08EE03D
:100D50000E94590960E08DE00E9459098FE097E2F6
:100D60000197F1F700C0000060E08CE00E94590993
:100D700060E08FE00E94590960E08EE00E9459090E
:100D800061E08DE00E9459098FE097E20197F1F749
:100D900000C0000008950F931F93CF93DF93A0E04E
:100DA000B0E0BC01CD0129E0660F771F881F991FB5
:100DB0002A95D1F728E631E040E050E00E949F0EEE
:100DC000E90100E010E00C171D0728F40E94190645
:100DD0000F5F1F4FF8CFDF91CF911F910F910895B3
:100DE0008F929F92AF92BF92CF92DF92EF92FF923B
:100DF000C82ED12CE12CF12C89E0CC0CDD1CEE1C92
:100E0000FF1C8A95D1F7812C912C54018C149D04E0
:100E1000AE04BF0441F00E9419068FEF881A980AA9
:100E2000A80AB80AF3CFFF90EF90DF90CF90BF9061
:100E3000AF909F908F9008950F931F93CF93DF9360
:100E4000A0E0B0E0BC01CD0129E0660F771F881F4C
:100E5000991F2A95D1F728E631E040E050E00E9442
:100E60009F0EE90100E010E00C171D0728F40E9416
:100E700072060F5F1F4FF8CFDF91CF911F910F9137
:100E800008958F929F92AF92BF92CF92DF92EF928E
:100E9000FF92C82ED12CE12CF12C89E0CC0CDD1C6A
:100EA000EE1CFF1C8A95D1F7812C912C54018C14D7
:100EB0009D04AE04BF0441F00E9472068FEF881AB1
:100EC000980AA80AB80AF3CFFF90EF90DF90CF906E
:100ED000BF90AF909F908F9008958091CB0290919A
:100EE000CC0201969093CC028093CB02089580911E
:100EF000C80281110FC01092CC021092CB0286B5AD
:100F000097B59093D0028093CF0280E00E94B20BFD
:100F100081E016C08091C8028130A1F486B597B5F2
:100F20009093CE028093CD028091CB029091CC021F
:100F30009093CA028093C90281E00E94B20B82E0C2
:100F40008093C802089589B7806289BF89B7846099
:100F500089BF8DE697E00E94A80B87E797E00E9483
:100F6000AD0B81E00C94B20BCF93C82F8FE19EE4C0
:100F70000197F1F700C0000061E08C2F0E94590931
:100F80009AE19A95F1F700C060E08C2FCF910C9414
:100F90005909CF93DF93EB0189ED99E52091C802C0
:100FA000223039F0019729F022E02A95F1F700C0AC
:100FB000F5CF8091C802823031F52091CD02309179
:100FC000CE028091CF029091D0026091C9027091BF
:100FD000CA02281B390BCB01A0E0B0E0DC01992745
:100FE0008827BC01CD01620F731F811D911D2AE36B
:100FF00030E040E050E00E949F0E39832883109239
:10100000C80281E001C080E0DF91CF9108950E9485
:101010007B080E94430366E081E00E941B080E9457
:10102000A3070E94D90C0E94180678940E94EC0134
:101030000E94F301FDCF96B1987F96B996B1677083
:10104000692B66B997B19F7397B927B1837030E464
:10105000839FC0011124822B87B93D98379A089548
:1010600097B1907E97B997B18F71982B97B91092DD
:10107000D102369A3699FECF84B195B10895109277
:10108000D1020E9430089C01A8E8B3E10E94E60E5C
:10109000DC01CB012AE0B695A795979587952A950F
:1010A000D1F708951F920F920FB60F9211242F932C
:1010B0003F934F935F936F937F938F939F93AF93E0
:1010C000BF93EF93FF93E091D202F091D302309758
:1010D00009F00995FF91EF91BF91AF919F918F9189
:1010E0007F916F915F914F913F912F910F900FBE24
:1010F0000F901F901895E2E1F2E040E081E090E06F
:101100005191342F369536953695242F27705130CE
:1011100009F443C020F0523009F482C0C5C0323017
:1011200001F1333061F1313071F05AB3BC0102C0CA
:10113000660F771F2A95E2F79B01352F322B3ABBBA
:101140003BB320953DC057B3BC0102C0660F771F6B
:101150002A95E2F79B01352F322B37BB38B3209508
:101160003EC054B3BC0102C0660F771F2A95E2F758
:101170009B01352F322B34BB35B320953FC051B383
:10118000BC0102C0660F771F2A95E2F79B01352F3D
:10119000322B31BB32B3209541C0323011F13330A4
:1011A00081F1313079F05AB3BC0102C0660F771F6C
:1011B0002A95E2F79B012095352F32233ABB3BB3AA
:1011C000232342C057B3BC0102C0660F771F2A9584
:1011D000E2F79B012095352F322337BB38B3232309
:1011E00043C054B3BC0102C0660F771F2A95E2F7D3
:1011F0009B012095352F322334BB35B3232325BBE8
:1012000053C051B3BC0102C0660F771F2A95E2F7A5
:101210009B012095352F322331BB32B3232343C0AA
:10122000323021F1333089F1313081F05AB3BC01D1
:1012300002C0660F771F2A95E2F79B01362F309583
:1012400035233ABB3BB3232B2BBB2EC057B3BC017A
:1012500002C0660F771F2A95E2F79B01362F309563
:10126000352337BB38B3232B28BB1EC054B3BC0176
:1012700002C0660F771F2A95E2F79B01362F309543
:10128000352334BB35B3232BBACF51B3BC0102C0D5
:10129000660F771F2A95E2F79B01362F309535238D
:1012A00031BB32B3232B22BB4F5F403209F028CF32
:1012B0000895982F96959695969587706130C1F50B
:1012C000913091F028F09230D9F0933029F10895BF
:1012D0004BB321E030E0B90102C0660F771F8A9559
:1012E000E2F7CB01842B38C048B321E030E0B901EC
:1012F00002C0660F771F8A95E2F7CB01842B3AC0B4
:1013000045B321E030E0B90102C0660F771F8A952E
:10131000E2F7CB01842B3CC042B321E030E0B901BD
:1013200002C0660F771F8A95E2F7CB01842B3EC07F
:101330009130A1F028F09230F9F0933059F10895EE
:101340004BB321E030E0B90102C0660F771F8A95E8
:10135000E2F7CB01809584238BBB089548B321E04D
:1013600030E0B90102C0660F771F8A95E2F7CB0122
:101370008095842388BB089545B321E030E0B9010E
:1013800002C0660F771F8A95E2F7CB018095842310
:1013900085BB089542B321E030E0B90102C0660F79
:1013A000771F8A95E2F7CB018095842382BB08954D
:1013B0001F920F920FB60F9211242F933F934F93CA
:1013C0005F936F937F938F939F93AF93BF93EF93AD
:1013D000FF93E091D402F091D502309709F009957E
:1013E000FF91EF91BF91AF919F918F917F916F91FD
:1013F0005F914F913F912F910F900FBE0F901F90D3
:1014000018951F920F920FB60F9211242F933F93AE
:101410004F935F936F937F938F939F93AF93BF93FC
:10142000EF93FF93E091DA02F091DB02309709F03D
:101430000995FF91EF91BF91AF919F918F917F910E
:101440006F915F914F913F912F910F900FBE0F9031
:101450001F9018951F920F920FB60F9211242F9381
:101460003F934F935F936F937F938F939F93AF932C
:10147000BF93EF93FF93E091D802F091D902309798
:1014800009F00995FF91EF91BF91AF919F918F91D5
:101490007F916F915F914F913F912F910F900FBE70
:1014A0000F901F9018951F920F920FB60F92112454
:1014B0002F933F934F935F936F937F938F939F935C
:1014C000AF93BF93EF93FF93E091D602F091D702D1
:1014D000309709F00995FF91EF91BF91AF919F91DE
:1014E0008F917F916F915F914F913F912F910F90CD
:1014F0000FBE0F901F901895813059F038F0823050
:1015000059F0833099F483B788600CC083B7877F24
:1015100005C083B7877F06C083B7886083BF83B762
:101520008F7B03C083BF83B7806483BF83B7887F0B
:1015300083BF83B7682B63BF0895813049F028F0DB
:10154000823061F0833069F0089583B78F7E02C0E6
:1015500083B7806183BF83B78F7D08C083B78F7ED9
:1015600002C083B7806183BF83B7806283BF089561
:101570001F920F920FB60F9211242F933F934F9308
:101580005F936F937F938F939F93AF93BF93EF93EB
:10159000FF93E091EA02F091EB02309709F0099590
:1015A000FF91EF91BF91AF919F918F917F916F913B
:1015B0005F914F913F912F910F900FBE0F901F9011
:1015C00018951F920F920FB60F9211242F933F93ED
:1015D0004F935F936F937F938F939F93AF93BF933B
:1015E000EF93FF93E091E802F091E902309709F060
:1015F0000995FF91EF91BF91AF919F918F917F914D
:101600006F915F914F913F912F910F900FBE0F906F
:101610001F90189590E08031910508F05CC0FC01A6
:10162000E65DFF4F0C94E00E8FB58E7F02C08FB544
:1016300081608FBD8FB58D7F8FBD8EB5877F8EBD4D
:101640008EB58F7E47C08FB58E7F02C08FB581600B
:101650008FBD8FB58260F0CF8FB58E7F02C08FB502
:1016600081608FBD8FB58D7F8FBD8EB58860E7CFD0
:101670008FB58E7F02C08FB581608FBD8FB58260C0
:10168000F3CF8FB58E7F02C08FB581608FBD8FB5D0
:101690008D7F08C08FB58E7F02C08FB581608FBDF2
:1016A0008FB582608FBD8EB5877F11C08FB58E7F5D
:1016B0008FBD8FB58D7F08C08FB58E7F02C08FB56F
:1016C00081608FBD8FB582608FBD8EB588608EBD05
:1016D0008EB580618EBD8EB5887F8EBD8EB5682B30
:1016E0006EBD0895813049F028F0823061F083307A
:1016F00069F008958FB58F7B02C08FB580648FBD70
:101700008FB58F7708C08FB58F7B02C08FB580648F
:101710008FBD8FB580688FBD0895813049F028F066
:10172000823061F0833069F008958FB58F7E02C0FA
:101730008FB580618FBD8FB58F7D08C08FB58F7ECF
:1017400002C08FB580618FBD8FB580628FBD089557
:101750009093E3028093E20208959093DD028093D8
:10176000DC020895882319F0813021F008958EB5A8
:101770008F7B02C08EB580648EBD08951F920F923C
:101780000FB60F9211242F933F934F935F936F9354
:101790007F938F939F93AF93BF93EF93FF93E091CA
:1017A000E202F091E302309709F00995FF91EF9181
:1017B000BF91AF919F918F917F916F915F914F9169
:1017C0003F912F910F900FBE0F901F9018951F9271
:1017D0000F920FB60F9211242F933F934F935F9365
:1017E0006F937F938F939F93AF93BF93EF93FF93E9
:1017F000E091E002F091E102309709F00995FF9144
:10180000EF91BF91AF919F918F917F916F915F9178
:101810004F913F912F910F900FBE0F901F901895F1
:101820001F920F920FB60F9211242F933F934F9355
:101830005F936F937F938F939F93AF93BF93EF9338
:10184000FF93E091DE02F091DF02309709F00995F5
:10185000FF91EF91BF91AF919F918F917F916F9188
:101860005F914F913F912F910F900FBE0F901F905E
:1018700018951F920F920FB60F9211242F933F933A
:101880004F935F936F937F938F939F93AF93BF9388
:10189000EF93FF93E091DC02F091DD02309709F0C5
:1018A0000995FF91EF91BF91AF919F918F917F919A
:1018B0006F915F914F913F912F910F900FBE0F90BD
:1018C0001F901895813059F038F0823071F08330D4
:1018D00091F485B580640BC085B58F7B02C085B55A
:1018E000806485BD85B5877F05C085B58F7B85BD47
:1018F00085B5886085BD85B5887F85BD85B5682B34
:1019000065BD08959093E7028093E60208951F92C3
:101910000F920FB60F9211242F933F934F935F9323
:101920006F937F938F939F93AF93BF93EF93FF93A7
:10193000E091E602F091E702309709F00995FF91F6
:10194000EF91BF91AF919F918F917F916F915F9137
:101950004F913F912F910F900FBE0F901F901895B0
:101960001F920F920FB60F9211242F933F934F9314
:101970005F936F937F938F939F93AF93BF93EF93F7
:10198000FF93E091E402F091E502309709F00995A8
:10199000FF91EF91BF91AF919F918F917F916F9147
:1019A0005F914F913F912F910F900FBE0F901F901D
:1019B000189583E389B95998549A539A08955D9B71
:1019C000FECF8CB908958CB908958CB10895909389
:1019D000F1028093F00208959093EF028093EE025B
:1019E00008951F920F920FB60F9211242F933F93D9
:1019F0004F935F936F937F938F939F93AF93BF9317
:101A0000EF93FF93E091F002F091F102309709F02B
:101A10000995FF91EF91BF91AF919F918F917F9128
:101A20006F915F914F913F912F910F900FBE0F904B
:101A30001F9018951F920F920FB60F9211242F939B
:101A40003F934F935F936F937F938F939F93AF9346
:101A5000BF93EF93FF93E091EE02F091EF02309786
:101A600009F00995FF91EF91BF91AF919F918F91EF
:101A70007F916F915F914F913F912F910F900FBE8A
:101A80000F901F9018951F920F920FB60F9211246E
:101A90002F933F934F935F936F937F938F939F9376
:101AA000AF93BF93EF93FF93E091EC02F091ED02BF
:101AB000309709F00995FF91EF91BF91AF919F91F8
:101AC0008F917F916F915F914F913F912F910F90E7
:101AD0000FBE0F901F9018958091FE029091FF020B
:101AE000A0910003B0910103813020E89207A10585
:101AF000B10520F18091F2029091F302019690934A
:101B0000F3028093F202A0E0B0E04091F80250911D
:101B1000F9026091FA027091FB0284179507A607FB
:101B2000B707D1F41092F3021092F2028091F402FE
:101B30009091F502A091F602B091F70227E0B695D8
:101B4000A795979587952A95D1F7819584BDE091C2
:101B5000FC02F091FD02099408950F931F93509396
:101B6000FD024093FC02A8EEB3E09B01AC010E9491
:101B7000F50E6093FE027093FF0280930003909332
:101B80000103613020E872078105910568F4DC01EA
:101B9000CB0167E0B695A795979587956A95D1F79C
:101BA000682F619564BD2AC08B019C011F77222795
:101BB00033270093F4021093F5022093F60230933A
:101BC000F702DC01CB014FE0B695A7959795879575
:101BD0004A95D1F70196A11DB11D8093F80290930B
:101BE000F902A093FA02B093FB0257E036952795CD
:101BF000179507955A95D1F7019504BD8CE69DE0A0
:101C00001F910F910C94820C80917F00E09106034C
:101C1000F0910703E80FF11D8081882339F00E94BD
:101C2000E30C80917F008F5F80937F000895CF93B6
:101C3000DF9380910203C0910403D0910503C80F84
:101C4000D11D0E94E50C8883209104033091050387
:101C500080910203F901E80FF11D9081933251F058
:101C60008F5F80930203E901C80FD11D0E94E50C2C
:101C7000888306C010821092020381E080930303E0
:101C8000DF91CF9108950F931F93CF938C01C0E004
:101C9000F801EC0FF11D8081882321F00E94DF0CF8
:101CA000CF5FF6CFCF911F910F910895CF93DF9320
:101CB000EC0188810E94DF0CD0930703C0930603D8
:101CC00084E09EE00E94E70C569ADF91CF91089540
:101CD000CF93DF93EC0187E19EE00E94EC0CD09360
:101CE0000503C0930403579ADF91CF910895CF93D2
:101CF000C92F0E94DF0C8C2FCF910C94DF0C991B05
:101D000079E004C0991F961708F0961B881F7A95F2
:101D1000C9F780950895AA1BBB1B51E107C0AA1FF4
:101D2000BB1FA617B70710F0A61BB70B881F991F7C
:101D30005A95A9F780959095BC01CD010895A1E22F
:101D40001A2EAA1BBB1BFD010DC0AA1FBB1FEE1F35
:101D5000FF1FA217B307E407F50720F0A21BB30B80
:101D6000E40BF50B661F771F881F991F1A9469F7FC
:101D700060957095809590959B01AC01BD01CF0158
:101D80000895052E97FB1EF400940E94D80E57FD6F
:101D900007D00E949F0E07FC03D04EF40C94D80E7F
:101DA00050954095309521953F4F4F4F5F4F089587
:101DB00090958095709561957F4F8F4F9F4F0895B7
:101DC000EE0FFF1F0590F491E02D0994A29FB00142
:101DD000B39FC001A39F700D811D1124911DB29F5F
:101DE000700D811D1124911D08950E94E60EA59F7E
:101DF000900DB49F900DA49F800D911D1124089506
:041E0000F894FFCF84
:101E0400FFFE01F201E101BB01C101C801CD01D412
:101E140001DB01E601EC01F801020207020D0201F7
:101E2400434F4C4F52204E6F7420466F756E6420A2
:101E340020004F4E004F464600436F6D6D616E6447
:101E4400204E6F74205249474854202000436F6D40
:101E54006D616E64204E6F742052494748542000CF
:101E64004343570053544F500020544F4F20464192
:101E74005220200050524F43455353494E4720208F
:101E840000202020202020202000436F6D6D616EF3
:101E940064204E6F7420466F756E64202000444F9A
:101EA4004E452020005245444C4544004752454588
:101EB4004E4C454400424C55454C45440053455214
:101EC400564F00524742005354455050455241002A
:101ED400535445505045525200554C545241534F5F
:101EE4004E494300414443004D4F544F52004C432C
:101EF400440052454C4159310052454C415932003D
:101F040042555A5A455200050165010C014B011511
:101F14000131011D01D600230196002701CB0130B8
:101F240001CB013901A40144017C0048017F014E29
:101F3400016F00520117015901FD006001E30043E4
:101F44004F4C4F52003C3C5247423E3E0053686F58
:101F540077726F6F6D204D6F646500574849544523
:101F64000059454C4C4F57004359414E004F524184
:101F74004E474500505552504C45004C4947485433
:101F84005F424C55450042524F574E004C4947481A
:101F9400545F475245454E004C494748545F5245AB
:101FA40044004752415900424C41434B0050494E72
:101FB4004B000100000000000000000000000000D1
:101FC400000000000000000002000100000000000A
:101FD40001000201030405060809FF000000FF00D8
:101FE4000000FFFFFFFFFFFF0000FFFFFF66008010
:101FF4000080000080993300008000800000808011
:0820040080000000FF80800055
:00000001FF
